:040000008FEF3FF04F
:107F1E00046A036A026A016A000196EF3FF00F0ECF
:107F2E00C11293809382949494928B948B9281A09D
:107F3E00A3EF3FF0A5EF3FF0A9EF3FF0034A042A6D
:107F4E00C4EF3FF081A2AEEF3FF0B0EF3FF0C4EFD1
:107F5E003FF081B2B5EF3FF0B7EF3FF0B0EF3FF03B
:107F6E00040E066E0C0E056E340EE82EFED7052E90
:107F7E00FCD7062EFAD7014A022A0A0E031804105D
:107F8E00D8A4CCEF3FF0CEEF3FF0E0EF3FF08B8484
:107F9E00070E066E170E056E6A0EE82EFED7052E1C
:107FAE00FCD7062EFAD700D08B94000E046E000E6E
:107FBE00036E0A0E01180210D8A4E8EF3FF0EAEFA4
:107FCE003FF09EEF3FF08B82070E066E170E056E8A
:107FDE006A0EE82EFED7052EFCD7062EFAD700D055
:107FEE008B92000E026E000E016E9EEF3FF000EFC0
:027FFE0000F091
:020000040020DA
:08000000FFFFFFFFFFFFFFFF00
:020000040030CA
:0E0000000005191EFF8185FF0FC00FE00F40A5
:00000001FF
