:04000000C1EF3FF01D
:107F82000001C4EF3FF00F0EC112F19E000E956E7C
:107F9200936894909268000E8C6E8B908C80070E82
:107FA200026E170E016E6A0EE82EFED7012EFCD766
:107FB200022EFAD700D01A0E8C6E070E026E170E22
:107FC200016E6A0EE82EFED7012EFCD7022EFAD7DA
:107FD20000D080B0EFEF3FF0F1EF3FF0F8EF3FF06D
:107FE20081B4F6EF3FF0F8EF3FF0FBEF3FF08B800C
:0E7FF200CFEF3FF08B90CFEF3FF000EF00F0AD
:020000040020DA
:08000000FFFFFFFFFFFFFFFF00
:020000040030CA
:0E0000000005191EFF8185FF0FC00FE00F40A5
:00000001FF
