:04000000BAEF3FF024
:107F60003F0006005B004F0066006D007D000700CB
:107F70007F006F00600EF66E7F0EF76E000EF86EDB
:107F800000EE01F010EE14F00900F5CFEEFFE55021
:107F9000E150FAE10001CDEF3FF00F0EC112000EEB
:107FA000956E000E186E000E176ED8901734D96EAD
:107FB0001834DA6E010ED926000EDA22DF508C6EEC
:107FC000070E166E170E156E6A0EE82EFED7152ECA
:107FD000FCD7162EFAD700D0174A182A18BEFAEF87
:107FE0003FF0185009E10A0E175CD8A0FAEF3FF0F5
:107FF000FCEF3FF0D5EF3FF0D1EF3FF000EF00F0A6
:020000040020DA
:08000000FFFFFFFFFFFFFFFF00
:020000040030CA
:0E0000000005191EFF8185FF0FC00FE00F40A5
:00000001FF
